{
  "contractName": "FriendshipPlatform",
  "abi": [
    {
      "anonymous": false,
      "inputs": [
        {
          "indexed": false,
          "internalType": "address",
          "name": "_adress",
          "type": "address"
        }
      ],
      "name": "request_accepted",
      "type": "event"
    },
    {
      "anonymous": false,
      "inputs": [
        {
          "indexed": false,
          "internalType": "address",
          "name": "_adress",
          "type": "address"
        }
      ],
      "name": "request_declined",
      "type": "event"
    },
    {
      "anonymous": false,
      "inputs": [
        {
          "indexed": false,
          "internalType": "address",
          "name": "_adress",
          "type": "address"
        }
      ],
      "name": "request_sent",
      "type": "event"
    },
    {
      "anonymous": false,
      "inputs": [
        {
          "indexed": false,
          "internalType": "address",
          "name": "_adress",
          "type": "address"
        }
      ],
      "name": "user_registered",
      "type": "event"
    },
    {
      "inputs": [
        {
          "internalType": "uint256",
          "name": "",
          "type": "uint256"
        }
      ],
      "name": "id_addresses_link",
      "outputs": [
        {
          "internalType": "address",
          "name": "",
          "type": "address"
        }
      ],
      "stateMutability": "view",
      "type": "function",
      "constant": true
    },
    {
      "inputs": [
        {
          "internalType": "address",
          "name": "",
          "type": "address"
        }
      ],
      "name": "users",
      "outputs": [
        {
          "internalType": "uint256",
          "name": "id",
          "type": "uint256"
        },
        {
          "internalType": "address",
          "name": "my_address",
          "type": "address"
        },
        {
          "internalType": "string",
          "name": "name",
          "type": "string"
        }
      ],
      "stateMutability": "view",
      "type": "function",
      "constant": true
    },
    {
      "inputs": [],
      "name": "get_all_users",
      "outputs": [
        {
          "components": [
            {
              "internalType": "uint256",
              "name": "id",
              "type": "uint256"
            },
            {
              "internalType": "address",
              "name": "my_address",
              "type": "address"
            },
            {
              "internalType": "string",
              "name": "name",
              "type": "string"
            },
            {
              "internalType": "address[]",
              "name": "friends_list",
              "type": "address[]"
            },
            {
              "internalType": "address[]",
              "name": "friend_requests_list",
              "type": "address[]"
            }
          ],
          "internalType": "struct FriendshipPlatform.User[]",
          "name": "",
          "type": "tuple[]"
        }
      ],
      "stateMutability": "view",
      "type": "function",
      "constant": true
    },
    {
      "inputs": [
        {
          "internalType": "string[]",
          "name": "names",
          "type": "string[]"
        },
        {
          "internalType": "address[]",
          "name": "addresses",
          "type": "address[]"
        }
      ],
      "name": "addDummyUsers",
      "outputs": [],
      "stateMutability": "nonpayable",
      "type": "function"
    },
    {
      "inputs": [
        {
          "internalType": "address",
          "name": "friend",
          "type": "address"
        }
      ],
      "name": "removeFriendRequest",
      "outputs": [],
      "stateMutability": "nonpayable",
      "type": "function"
    },
    {
      "inputs": [
        {
          "internalType": "address",
          "name": "userAddress",
          "type": "address"
        }
      ],
      "name": "isUserExist",
      "outputs": [
        {
          "internalType": "bool",
          "name": "",
          "type": "bool"
        }
      ],
      "stateMutability": "view",
      "type": "function",
      "constant": true
    },
    {
      "inputs": [
        {
          "internalType": "string",
          "name": "_name",
          "type": "string"
        }
      ],
      "name": "register_new_user",
      "outputs": [],
      "stateMutability": "nonpayable",
      "type": "function"
    },
    {
      "inputs": [
        {
          "internalType": "address",
          "name": "_otherUserAddr",
          "type": "address"
        }
      ],
      "name": "send_request",
      "outputs": [],
      "stateMutability": "nonpayable",
      "type": "function"
    },
    {
      "inputs": [
        {
          "internalType": "address",
          "name": "_otherUserAddr",
          "type": "address"
        }
      ],
      "name": "accept_request",
      "outputs": [],
      "stateMutability": "nonpayable",
      "type": "function"
    },
    {
      "inputs": [
        {
          "internalType": "address",
          "name": "_otherUserAddr",
          "type": "address"
        }
      ],
      "name": "decline_request",
      "outputs": [],
      "stateMutability": "nonpayable",
      "type": "function"
    }
  ],
  "bytecode": "0x60806040525f60025560405180606001604052806040518060400160405280600c81526020017f44756d6d7920557365722031000000000000000000000000000000000000000081525081526020016040518060400160405280600c81526020017f44756d6d7920557365722032000000000000000000000000000000000000000081525081526020016040518060400160405280600c81526020017f44756d6d792055736572203300000000000000000000000000000000000000008152508152506003906003620000d4929190620001d6565b50604051806060016040528073111111111111111111111111111111111111111173ffffffffffffffffffffffffffffffffffffffff1673ffffffffffffffffffffffffffffffffffffffff16815260200173222222222222222222222222222222222222222273ffffffffffffffffffffffffffffffffffffffff1673ffffffffffffffffffffffffffffffffffffffff16815260200173333333333333333333333333333333333333333373ffffffffffffffffffffffffffffffffffffffff1673ffffffffffffffffffffffffffffffffffffffff168152506004906003620001c292919062000234565b50348015620001cf575f80fd5b506200068f565b828054828255905f5260205f2090810192821562000221579160200282015b82811115620002205782518290816200020f9190620005ab565b5091602001919060010190620001f5565b5b509050620002309190620002c0565b5090565b828054828255905f5260205f20908101928215620002ad579160200282015b82811115620002ac578251825f6101000a81548173ffffffffffffffffffffffffffffffffffffffff021916908373ffffffffffffffffffffffffffffffffffffffff1602179055509160200191906001019062000253565b5b509050620002bc9190620002e7565b5090565b5b80821115620002e3575f8181620002d9919062000304565b50600101620002c1565b5090565b5b8082111562000300575f815f905550600101620002e8565b5090565b5080546200031290620003ab565b5f825580601f1062000325575062000344565b601f0160209004905f5260205f2090810190620003439190620002e7565b5b50565b5f81519050919050565b7f4e487b71000000000000000000000000000000000000000000000000000000005f52604160045260245ffd5b7f4e487b71000000000000000000000000000000000000000000000000000000005f52602260045260245ffd5b5f6002820490506001821680620003c357607f821691505b602082108103620003d957620003d86200037e565b5b50919050565b5f819050815f5260205f209050919050565b5f6020601f8301049050919050565b5f82821b905092915050565b5f600883026200043d7fffffffffffffffffffffffffffffffffffffffffffffffffffffffffffffffff8262000400565b62000449868362000400565b95508019841693508086168417925050509392505050565b5f819050919050565b5f819050919050565b5f620004936200048d620004878462000461565b6200046a565b62000461565b9050919050565b5f819050919050565b620004ae8362000473565b620004c6620004bd826200049a565b8484546200040c565b825550505050565b5f90565b620004dc620004ce565b620004e9818484620004a3565b505050565b5b818110156200051057620005045f82620004d2565b600181019050620004ef565b5050565b601f8211156200055f576200052981620003df565b6200053484620003f1565b8101602085101562000544578190505b6200055c6200055385620003f1565b830182620004ee565b50505b505050565b5f82821c905092915050565b5f620005815f198460080262000564565b1980831691505092915050565b5f6200059b838362000570565b9150826002028217905092915050565b620005b68262000347565b67ffffffffffffffff811115620005d257620005d162000351565b5b620005de8254620003ab565b620005eb82828562000514565b5f60209050601f83116001811462000621575f84156200060c578287015190505b6200061885826200058e565b86555062000687565b601f1984166200063186620003df565b5f5b828110156200065a5784890151825560018201915060208501945060208101905062000633565b868310156200067a578489015162000676601f89168262000570565b8355505b6001600288020188555050505b505050505050565b611ec2806200069d5f395ff3fe608060405234801561000f575f80fd5b506004361061009c575f3560e01c8063a576864811610064578063a576864814610154578063a87430ba14610170578063bb4b2457146101a2578063e04070aa146101be578063e4b5216f146101dc5761009c565b80630255fa1e146100a0578063240b93ac146100d05780633afe094714610100578063891ba25e1461011c5780638dc0644c14610138575b5f80fd5b6100ba60048036038101906100b5919061121e565b6101f8565b6040516100c79190611263565b60405180910390f35b6100ea60048036038101906100e591906112af565b610292565b6040516100f791906112e9565b60405180910390f35b61011a6004803603810190610115919061121e565b6102c2565b005b6101366004803603810190610131919061143e565b610312565b005b610152600480360381019061014d919061121e565b6104ec565b005b61016e60048036038101906101699190611627565b610772565b005b61018a6004803603810190610185919061121e565b6109cd565b60405161019993929190611726565b60405180910390f35b6101bc60048036038101906101b7919061121e565b610a97565b005b6101c6610ada565b6040516101d391906119ac565b60405180910390f35b6101f660048036038101906101f1919061121e565b610df5565b005b5f805f808473ffffffffffffffffffffffffffffffffffffffff1673ffffffffffffffffffffffffffffffffffffffff1681526020019081526020015f2090508273ffffffffffffffffffffffffffffffffffffffff16816001015f9054906101000a900473ffffffffffffffffffffffffffffffffffffffff1673ffffffffffffffffffffffffffffffffffffffff1614915050919050565b6001602052805f5260405f205f915054906101000a900473ffffffffffffffffffffffffffffffffffffffff1681565b5f805f3373ffffffffffffffffffffffffffffffffffffffff1673ffffffffffffffffffffffffffffffffffffffff1681526020019081526020015f20905061030e8160040183610ecc565b5050565b5f151561031e336101f8565b1515036104e9575f600254905060025f81548092919061033d906119f9565b91905055506060806040518060a001604052808481526020013373ffffffffffffffffffffffffffffffffffffffff168152602001858152602001838152602001828152505f803373ffffffffffffffffffffffffffffffffffffffff1673ffffffffffffffffffffffffffffffffffffffff1681526020019081526020015f205f820151815f01556020820151816001015f6101000a81548173ffffffffffffffffffffffffffffffffffffffff021916908373ffffffffffffffffffffffffffffffffffffffff16021790555060408201518160020190816104219190611c3a565b50606082015181600301908051906020019061043e9291906110ce565b50608082015181600401908051906020019061045b9291906110ce565b509050503360015f8581526020019081526020015f205f6101000a81548173ffffffffffffffffffffffffffffffffffffffff021916908373ffffffffffffffffffffffffffffffffffffffff1602179055507f134a0709fc6a031906654d3b36f9a57eaeceee5124f4b8e5c5b666eaf746937c336040516104dd91906112e9565b60405180910390a15050505b50565b6105b65f803373ffffffffffffffffffffffffffffffffffffffff1673ffffffffffffffffffffffffffffffffffffffff1681526020019081526020015f206003018054806020026020016040519081016040528092919081815260200182805480156105ab57602002820191905f5260205f20905b815f9054906101000a900473ffffffffffffffffffffffffffffffffffffffff1673ffffffffffffffffffffffffffffffffffffffff1681526020019060010190808311610562575b50505050508261104a565b6105f5576040517f08c379a00000000000000000000000000000000000000000000000000000000081526004016105ec90611d53565b60405180910390fd5b6105fe816102c2565b5f803373ffffffffffffffffffffffffffffffffffffffff1673ffffffffffffffffffffffffffffffffffffffff1681526020019081526020015f2060030181908060018154018082558091505060019003905f5260205f20015f9091909190916101000a81548173ffffffffffffffffffffffffffffffffffffffff021916908373ffffffffffffffffffffffffffffffffffffffff1602179055505f808273ffffffffffffffffffffffffffffffffffffffff1673ffffffffffffffffffffffffffffffffffffffff1681526020019081526020015f2060030133908060018154018082558091505060019003905f5260205f20015f9091909190916101000a81548173ffffffffffffffffffffffffffffffffffffffff021916908373ffffffffffffffffffffffffffffffffffffffff1602179055507fbb435fe0b132ea3f8b8f11e71708f224de21447babfeead410fd649f29cac8ac8160405161076791906112e9565b60405180910390a150565b80518251146107b6576040517f08c379a00000000000000000000000000000000000000000000000000000000081526004016107ad90611de1565b60405180910390fd5b5f5b82518110156109c8575f600254905060025f8154809291906107d9906119f9565b91905055506060806040518060a0016040528084815260200186868151811061080557610804611dff565b5b602002602001015173ffffffffffffffffffffffffffffffffffffffff16815260200187868151811061083b5761083a611dff565b5b60200260200101518152602001838152602001828152505f8087878151811061086757610866611dff565b5b602002602001015173ffffffffffffffffffffffffffffffffffffffff1673ffffffffffffffffffffffffffffffffffffffff1681526020019081526020015f205f820151815f01556020820151816001015f6101000a81548173ffffffffffffffffffffffffffffffffffffffff021916908373ffffffffffffffffffffffffffffffffffffffff160217905550604082015181600201908161090b9190611c3a565b5060608201518160030190805190602001906109289291906110ce565b5060808201518160040190805190602001906109459291906110ce565b5090505084848151811061095c5761095b611dff565b5b602002602001015160015f8581526020019081526020015f205f6101000a81548173ffffffffffffffffffffffffffffffffffffffff021916908373ffffffffffffffffffffffffffffffffffffffff16021790555050505080806109c0906119f9565b9150506107b8565b505050565b5f602052805f5260405f205f91509050805f015490806001015f9054906101000a900473ffffffffffffffffffffffffffffffffffffffff1690806002018054610a1690611a6d565b80601f0160208091040260200160405190810160405280929190818152602001828054610a4290611a6d565b8015610a8d5780601f10610a6457610100808354040283529160200191610a8d565b820191905f5260205f20905b815481529060010190602001808311610a7057829003601f168201915b5050505050905083565b610aa0816102c2565b7fffac76f5f639a5772df6cca1dde6580c399ed5eee94a1d13895995eb87c8095381604051610acf91906112e9565b60405180910390a150565b60605f60025467ffffffffffffffff811115610af957610af861131a565b5b604051908082528060200260200182016040528015610b3257816020015b610b1f611155565b815260200190600190039081610b175790505b5090505f5b600254811015610ded575f8060015f8481526020019081526020015f205f9054906101000a900473ffffffffffffffffffffffffffffffffffffffff1673ffffffffffffffffffffffffffffffffffffffff1673ffffffffffffffffffffffffffffffffffffffff1681526020019081526020015f206040518060a00160405290815f8201548152602001600182015f9054906101000a900473ffffffffffffffffffffffffffffffffffffffff1673ffffffffffffffffffffffffffffffffffffffff1673ffffffffffffffffffffffffffffffffffffffff168152602001600282018054610c2690611a6d565b80601f0160208091040260200160405190810160405280929190818152602001828054610c5290611a6d565b8015610c9d5780601f10610c7457610100808354040283529160200191610c9d565b820191905f5260205f20905b815481529060010190602001808311610c8057829003601f168201915b5050505050815260200160038201805480602002602001604051908101604052809291908181526020018280548015610d2857602002820191905f5260205f20905b815f9054906101000a900473ffffffffffffffffffffffffffffffffffffffff1673ffffffffffffffffffffffffffffffffffffffff1681526020019060010190808311610cdf575b5050505050815260200160048201805480602002602001604051908101604052809291908181526020018280548015610db357602002820191905f5260205f20905b815f9054906101000a900473ffffffffffffffffffffffffffffffffffffffff1673ffffffffffffffffffffffffffffffffffffffff1681526020019060010190808311610d6a575b505050505081525050828281518110610dcf57610dce611dff565b5b60200260200101819052508080610de5906119f9565b915050610b37565b508091505090565b5f808273ffffffffffffffffffffffffffffffffffffffff1673ffffffffffffffffffffffffffffffffffffffff1681526020019081526020015f2060040133908060018154018082558091505060019003905f5260205f20015f9091909190916101000a81548173ffffffffffffffffffffffffffffffffffffffff021916908373ffffffffffffffffffffffffffffffffffffffff1602179055507fdfd05900f96050d2bfefdee742b7334e5a8e4e594fd5591ef19c75a7e123e38233604051610ec191906112e9565b60405180910390a150565b5f5b8280549050811015611045578173ffffffffffffffffffffffffffffffffffffffff16838281548110610f0457610f03611dff565b5b905f5260205f20015f9054906101000a900473ffffffffffffffffffffffffffffffffffffffff1673ffffffffffffffffffffffffffffffffffffffff1603611032578260018480549050610f599190611e2c565b81548110610f6a57610f69611dff565b5b905f5260205f20015f9054906101000a900473ffffffffffffffffffffffffffffffffffffffff16838281548110610fa557610fa4611dff565b5b905f5260205f20015f6101000a81548173ffffffffffffffffffffffffffffffffffffffff021916908373ffffffffffffffffffffffffffffffffffffffff16021790555082805480610ffb57610ffa611e5f565b5b600190038181905f5260205f20015f6101000a81549073ffffffffffffffffffffffffffffffffffffffff02191690559055611045565b808061103d906119f9565b915050610ece565b505050565b5f805f90505b83518110156110c2578273ffffffffffffffffffffffffffffffffffffffff1684828151811061108357611082611dff565b5b602002602001015173ffffffffffffffffffffffffffffffffffffffff16036110af575f9150506110c8565b80806110ba906119f9565b915050611050565b50600190505b92915050565b828054828255905f5260205f20908101928215611144579160200282015b82811115611143578251825f6101000a81548173ffffffffffffffffffffffffffffffffffffffff021916908373ffffffffffffffffffffffffffffffffffffffff160217905550916020019190600101906110ec565b5b5090506111519190611198565b5090565b6040518060a001604052805f81526020015f73ffffffffffffffffffffffffffffffffffffffff1681526020016060815260200160608152602001606081525090565b5b808211156111af575f815f905550600101611199565b5090565b5f604051905090565b5f80fd5b5f80fd5b5f73ffffffffffffffffffffffffffffffffffffffff82169050919050565b5f6111ed826111c4565b9050919050565b6111fd816111e3565b8114611207575f80fd5b50565b5f81359050611218816111f4565b92915050565b5f60208284031215611233576112326111bc565b5b5f6112408482850161120a565b91505092915050565b5f8115159050919050565b61125d81611249565b82525050565b5f6020820190506112765f830184611254565b92915050565b5f819050919050565b61128e8161127c565b8114611298575f80fd5b50565b5f813590506112a981611285565b92915050565b5f602082840312156112c4576112c36111bc565b5b5f6112d18482850161129b565b91505092915050565b6112e3816111e3565b82525050565b5f6020820190506112fc5f8301846112da565b92915050565b5f80fd5b5f80fd5b5f601f19601f8301169050919050565b7f4e487b71000000000000000000000000000000000000000000000000000000005f52604160045260245ffd5b6113508261130a565b810181811067ffffffffffffffff8211171561136f5761136e61131a565b5b80604052505050565b5f6113816111b3565b905061138d8282611347565b919050565b5f67ffffffffffffffff8211156113ac576113ab61131a565b5b6113b58261130a565b9050602081019050919050565b828183375f83830152505050565b5f6113e26113dd84611392565b611378565b9050828152602081018484840111156113fe576113fd611306565b5b6114098482856113c2565b509392505050565b5f82601f83011261142557611424611302565b5b81356114358482602086016113d0565b91505092915050565b5f60208284031215611453576114526111bc565b5b5f82013567ffffffffffffffff8111156114705761146f6111c0565b5b61147c84828501611411565b91505092915050565b5f67ffffffffffffffff82111561149f5761149e61131a565b5b602082029050602081019050919050565b5f80fd5b5f6114c66114c184611485565b611378565b905080838252602082019050602084028301858111156114e9576114e86114b0565b5b835b8181101561153057803567ffffffffffffffff81111561150e5761150d611302565b5b80860161151b8982611411565b855260208501945050506020810190506114eb565b5050509392505050565b5f82601f83011261154e5761154d611302565b5b813561155e8482602086016114b4565b91505092915050565b5f67ffffffffffffffff8211156115815761158061131a565b5b602082029050602081019050919050565b5f6115a461159f84611567565b611378565b905080838252602082019050602084028301858111156115c7576115c66114b0565b5b835b818110156115f057806115dc888261120a565b8452602084019350506020810190506115c9565b5050509392505050565b5f82601f83011261160e5761160d611302565b5b813561161e848260208601611592565b91505092915050565b5f806040838503121561163d5761163c6111bc565b5b5f83013567ffffffffffffffff81111561165a576116596111c0565b5b6116668582860161153a565b925050602083013567ffffffffffffffff811115611687576116866111c0565b5b611693858286016115fa565b9150509250929050565b6116a68161127c565b82525050565b5f81519050919050565b5f82825260208201905092915050565b5f5b838110156116e35780820151818401526020810190506116c8565b5f8484015250505050565b5f6116f8826116ac565b61170281856116b6565b93506117128185602086016116c6565b61171b8161130a565b840191505092915050565b5f6060820190506117395f83018661169d565b61174660208301856112da565b818103604083015261175881846116ee565b9050949350505050565b5f81519050919050565b5f82825260208201905092915050565b5f819050602082019050919050565b6117948161127c565b82525050565b6117a3816111e3565b82525050565b5f82825260208201905092915050565b5f6117c3826116ac565b6117cd81856117a9565b93506117dd8185602086016116c6565b6117e68161130a565b840191505092915050565b5f81519050919050565b5f82825260208201905092915050565b5f819050602082019050919050565b5f611825838361179a565b60208301905092915050565b5f602082019050919050565b5f611847826117f1565b61185181856117fb565b935061185c8361180b565b805f5b8381101561188c578151611873888261181a565b975061187e83611831565b92505060018101905061185f565b5085935050505092915050565b5f60a083015f8301516118ae5f86018261178b565b5060208301516118c1602086018261179a565b50604083015184820360408601526118d982826117b9565b915050606083015184820360608601526118f3828261183d565b9150506080830151848203608086015261190d828261183d565b9150508091505092915050565b5f6119258383611899565b905092915050565b5f602082019050919050565b5f61194382611762565b61194d818561176c565b93508360208202850161195f8561177c565b805f5b8581101561199a578484038952815161197b858261191a565b94506119868361192d565b925060208a01995050600181019050611962565b50829750879550505050505092915050565b5f6020820190508181035f8301526119c48184611939565b905092915050565b7f4e487b71000000000000000000000000000000000000000000000000000000005f52601160045260245ffd5b5f611a038261127c565b91507fffffffffffffffffffffffffffffffffffffffffffffffffffffffffffffffff8203611a3557611a346119cc565b5b600182019050919050565b7f4e487b71000000000000000000000000000000000000000000000000000000005f52602260045260245ffd5b5f6002820490506001821680611a8457607f821691505b602082108103611a9757611a96611a40565b5b50919050565b5f819050815f5260205f209050919050565b5f6020601f8301049050919050565b5f82821b905092915050565b5f60088302611af97fffffffffffffffffffffffffffffffffffffffffffffffffffffffffffffffff82611abe565b611b038683611abe565b95508019841693508086168417925050509392505050565b5f819050919050565b5f611b3e611b39611b348461127c565b611b1b565b61127c565b9050919050565b5f819050919050565b611b5783611b24565b611b6b611b6382611b45565b848454611aca565b825550505050565b5f90565b611b7f611b73565b611b8a818484611b4e565b505050565b5b81811015611bad57611ba25f82611b77565b600181019050611b90565b5050565b601f821115611bf257611bc381611a9d565b611bcc84611aaf565b81016020851015611bdb578190505b611bef611be785611aaf565b830182611b8f565b50505b505050565b5f82821c905092915050565b5f611c125f1984600802611bf7565b1980831691505092915050565b5f611c2a8383611c03565b9150826002028217905092915050565b611c43826116ac565b67ffffffffffffffff811115611c5c57611c5b61131a565b5b611c668254611a6d565b611c71828285611bb1565b5f60209050601f831160018114611ca2575f8415611c90578287015190505b611c9a8582611c1f565b865550611d01565b601f198416611cb086611a9d565b5f5b82811015611cd757848901518255600182019150602085019450602081019050611cb2565b86831015611cf45784890151611cf0601f891682611c03565b8355505b6001600288020188555050505b505050505050565b7f596f752061726520616c726561647920667269656e64730000000000000000005f82015250565b5f611d3d6017836116b6565b9150611d4882611d09565b602082019050919050565b5f6020820190508181035f830152611d6a81611d31565b9050919050565b7f4e756d626572206f66206e616d657320616e64206164647265737365732073685f8201527f6f756c64206265207468652073616d6500000000000000000000000000000000602082015250565b5f611dcb6030836116b6565b9150611dd682611d71565b604082019050919050565b5f6020820190508181035f830152611df881611dbf565b9050919050565b7f4e487b71000000000000000000000000000000000000000000000000000000005f52603260045260245ffd5b5f611e368261127c565b9150611e418361127c565b9250828203905081811115611e5957611e586119cc565b5b92915050565b7f4e487b71000000000000000000000000000000000000000000000000000000005f52603160045260245ffdfea26469706673582212200190baf001b47aedb2a2a32a4480df54d1a0c9375f11eab59640e8b67d4212bb64736f6c63430008140033",
  "immutableReferences": {},
  "source": "// SPDX-License-Identifier: GPL-3.0\r\n\r\npragma solidity >=0.8.2 <0.9.0;\r\n\r\ncontract FriendshipPlatform{\r\n    struct User{\r\n        uint id;\r\n        address my_address;\r\n        string name;\r\n        address[] friends_list;\r\n        address[] friend_requests_list;\r\n\r\n    }\r\n\r\n    mapping(address => User) public users;\r\n    mapping(uint => address) public id_addresses_link;\r\n    uint user_count = 0;\r\n\r\n    string[] dummyNames = [\"Dummy User 1\", \"Dummy User 2\", \"Dummy User 3\"];\r\n    address[] dummyAddresses = [0x1111111111111111111111111111111111111111, 0x2222222222222222222222222222222222222222, 0x3333333333333333333333333333333333333333];\r\n\r\n    \r\n\r\n\r\n    event user_registered(address _adress);\r\n    event request_sent(address _adress);\r\n    event request_accepted(address _adress);\r\n    event request_declined(address _adress);\r\n    \r\n    function removeValue(address[] storage array, address value) internal {\r\n        for (uint256 i = 0; i < array.length; i++) {\r\n            if (array[i] == value) {\r\n                array[i] = array[array.length - 1]; // Swap with the last element\r\n                array.pop(); // Reduce the array size by one\r\n                break;\r\n            }\r\n        }\r\n    }\r\n    function checkValueNotInArray(address[] memory array, address value) internal pure returns (bool) {\r\n    for (uint256 i = 0; i < array.length; i++) {\r\n        if (array[i] == value) {\r\n            return false;  // Value found in the array\r\n        }\r\n    }\r\n    return true;  // Value not found in the array\r\n}\r\n    function get_all_users() public view returns (User[] memory) {\r\n        User[] memory allUsers = new User[](user_count);\r\n\r\n        for (uint i = 0; i < user_count; i++) {\r\n            allUsers[i] = users[id_addresses_link[i]];\r\n        }\r\n\r\n        return allUsers;\r\n    }\r\n\r\n    function addDummyUsers(string[] memory names, address[] memory addresses) public {\r\n        require(names.length == addresses.length, \"Number of names and addresses should be the same\");\r\n\r\n        for (uint256 i = 0; i < names.length; i++) {\r\n            uint id = user_count;\r\n            user_count++;\r\n            address[] memory emptyFriendsList;\r\n            address[] memory emptyFriendRequestsList;\r\n            users[addresses[i]] = User(id,addresses[i],names[i], emptyFriendsList, emptyFriendRequestsList);\r\n            id_addresses_link[id] = addresses[i];\r\n            //users[addresses[i]].my_address = addresses[i];\r\n        }\r\n    }\r\n\r\n    function removeFriendRequest(address friend) public {\r\n        User storage user = users[msg.sender];\r\n        removeValue(user.friend_requests_list, friend);\r\n    }\r\n\r\n    function isUserExist(address userAddress) public view returns (bool) {\r\n        User storage user = users[userAddress];\r\n        return (user.my_address == userAddress);\r\n}\r\n\r\n    function register_new_user(string memory _name) public{\r\n        if (isUserExist(msg.sender)==false) {\r\n            uint id = user_count;\r\n            user_count++;\r\n\r\n            address[] memory emptyFriendsList;\r\n            address[] memory emptyFriendRequestsList;\r\n\r\n            users[msg.sender] = User(id,msg.sender,_name, emptyFriendsList, emptyFriendRequestsList);\r\n            id_addresses_link[id] = msg.sender;\r\n            emit user_registered(msg.sender);\r\n        }\r\n        \r\n    }\r\n\r\n    function send_request(address _otherUserAddr) public {\r\n        users[_otherUserAddr].friend_requests_list.push(msg.sender);\r\n        emit request_sent(msg.sender);\r\n    }\r\n\r\n    function accept_request(address _otherUserAddr) public {\r\n        require(checkValueNotInArray(users[msg.sender].friends_list, _otherUserAddr), \"You are already friends\");\r\n        removeFriendRequest(_otherUserAddr);\r\n        users[msg.sender].friends_list.push(_otherUserAddr);\r\n        users[_otherUserAddr].friends_list.push(msg.sender);\r\n        emit request_accepted(_otherUserAddr);\r\n    }\r\n\r\n    function decline_request(address _otherUserAddr) public {\r\n        removeFriendRequest(_otherUserAddr);\r\n        emit request_declined(_otherUserAddr);\r\n    }\r\n\r\n}",
  "sourcePath": "D:\\Fakultet\\Kriptografija\\Testing\\contracts\\FriendshipPlatform.sol",
  "compiler": {
    "name": "solc",
    "version": "0.8.20+commit.a1b79de6.Emscripten.clang"
  },
  "schemaVersion": "3.4.14",
  "updatedAt": "2023-06-06T21:48:12.811Z",
  "networkType": "ethereum",
  "devdoc": {
    "kind": "dev",
    "methods": {},
    "version": 1
  },
  "userdoc": {
    "kind": "user",
    "methods": {},
    "version": 1
  }
}